{
  "_format": "hh-sol-artifact-1",
  "contractName": "Voting",
  "sourceName": "contracts/Voting.sol",
  "abi": [
    {
      "inputs": [
        {
          "internalType": "string",
          "name": "_name",
          "type": "string"
        },
        {
          "internalType": "string[]",
          "name": "_options",
          "type": "string[]"
        },
        {
          "internalType": "uint256",
          "name": "_duration",
          "type": "uint256"
        }
      ],
      "name": "createProposal",
      "outputs": [],
      "stateMutability": "nonpayable",
      "type": "function"
    },
    {
      "inputs": [
        {
          "internalType": "uint256",
          "name": "_id",
          "type": "uint256"
        }
      ],
      "name": "finalize",
      "outputs": [],
      "stateMutability": "nonpayable",
      "type": "function"
    },
    {
      "inputs": [
        {
          "internalType": "uint256",
          "name": "_id",
          "type": "uint256"
        }
      ],
      "name": "getProposal",
      "outputs": [
        {
          "internalType": "string",
          "name": "",
          "type": "string"
        },
        {
          "internalType": "string[]",
          "name": "",
          "type": "string[]"
        },
        {
          "internalType": "uint256[]",
          "name": "",
          "type": "uint256[]"
        },
        {
          "internalType": "bool",
          "name": "",
          "type": "bool"
        },
        {
          "internalType": "uint256",
          "name": "",
          "type": "uint256"
        }
      ],
      "stateMutability": "view",
      "type": "function"
    },
    {
      "inputs": [],
      "name": "getProposalCount",
      "outputs": [
        {
          "internalType": "uint256",
          "name": "",
          "type": "uint256"
        }
      ],
      "stateMutability": "view",
      "type": "function"
    },
    {
      "inputs": [
        {
          "internalType": "uint256",
          "name": "",
          "type": "uint256"
        },
        {
          "internalType": "address",
          "name": "",
          "type": "address"
        }
      ],
      "name": "hasVoted",
      "outputs": [
        {
          "internalType": "bool",
          "name": "",
          "type": "bool"
        }
      ],
      "stateMutability": "view",
      "type": "function"
    },
    {
      "inputs": [
        {
          "internalType": "uint256",
          "name": "",
          "type": "uint256"
        }
      ],
      "name": "proposals",
      "outputs": [
        {
          "internalType": "string",
          "name": "name",
          "type": "string"
        },
        {
          "internalType": "bool",
          "name": "finalized",
          "type": "bool"
        },
        {
          "internalType": "uint256",
          "name": "deadline",
          "type": "uint256"
        }
      ],
      "stateMutability": "view",
      "type": "function"
    },
    {
      "inputs": [
        {
          "internalType": "uint256",
          "name": "_id",
          "type": "uint256"
        },
        {
          "internalType": "uint256",
          "name": "_optionIndex",
          "type": "uint256"
        }
      ],
      "name": "vote",
      "outputs": [],
      "stateMutability": "nonpayable",
      "type": "function"
    }
  ],
  "bytecode": "0x608060405234801561001057600080fd5b5061169d806100206000396000f3fe608060405234801561001057600080fd5b506004361061007d5760003560e01c8063438596321161005b57806343859632146100ec578063b384abef1461011c578063c08cc02d14610138578063c7f758a8146101565761007d565b8063013cf08b1461008257806305261aea146100b45780633989ae34146100d0575b600080fd5b61009c600480360381019061009791906109ca565b61018a565b6040516100ab93929190610ab1565b60405180910390f35b6100ce60048036038101906100c991906109ca565b610259565b005b6100ea60048036038101906100e59190610d0a565b6102e6565b005b61010660048036038101906101019190610df3565b610412565b6040516101139190610e33565b60405180910390f35b61013660048036038101906101319190610e4e565b610441565b005b610140610638565b60405161014d9190610e8e565b60405180910390f35b610170600480360381019061016b91906109ca565b610644565b604051610181959493929190611073565b60405180910390f35b6000818154811061019a57600080fd5b90600052602060002090600502016000915090508060000180546101bd9061110a565b80601f01602080910402602001604051908101604052809291908181526020018280546101e99061110a565b80156102365780601f1061020b57610100808354040283529160200191610236565b820191906000526020600020905b81548152906001019060200180831161021957829003601f168201915b5050505050908060030160009054906101000a900460ff16908060040154905083565b600080828154811061026e5761026d61113b565b5b9060005260206000209060050201905080600401544210156102c5576040517f08c379a00000000000000000000000000000000000000000000000000000000081526004016102bc906111b6565b60405180910390fd5b60018160030160006101000a81548160ff0219169083151502179055505050565b60028251101561032b576040517f08c379a000000000000000000000000000000000000000000000000000000000815260040161032290611222565b60405180910390fd5b60008060018160018154018082558091505003906000526020600020906005020190508381600001908161035f91906113ee565b5082816001019080519060200190610378929190610859565b50825167ffffffffffffffff81111561039457610393610af9565b5b6040519080825280602002602001820160405280156103c25781602001602082028036833780820191505090505b508160020190805190602001906103da9291906108b2565b5060008160030160006101000a81548160ff021916908315150217905550814261040491906114ef565b816004018190555050505050565b60016020528160005260406000206020528060005260406000206000915091509054906101000a900460ff1681565b60008083815481106104565761045561113b565b5b906000526020600020906005020190506001600084815260200190815260200160002060003373ffffffffffffffffffffffffffffffffffffffff1673ffffffffffffffffffffffffffffffffffffffff16815260200190815260200160002060009054906101000a900460ff1615610504576040517f08c379a00000000000000000000000000000000000000000000000000000000081526004016104fb9061156f565b60405180910390fd5b8060010180549050821061054d576040517f08c379a0000000000000000000000000000000000000000000000000000000008152600401610544906115db565b60405180910390fd5b80600401544210610593576040517f08c379a000000000000000000000000000000000000000000000000000000000815260040161058a90611647565b60405180910390fd5b60018160020183815481106105ab576105aa61113b565b5b9060005260206000200160008282546105c491906114ef565b92505081905550600180600085815260200190815260200160002060003373ffffffffffffffffffffffffffffffffffffffff1673ffffffffffffffffffffffffffffffffffffffff16815260200190815260200160002060006101000a81548160ff021916908315150217905550505050565b60008080549050905090565b606080606060008060008087815481106106615761066061113b565b5b906000526020600020906005020190508060000181600101826002018360030160009054906101000a900460ff1684600401548480546106a09061110a565b80601f01602080910402602001604051908101604052809291908181526020018280546106cc9061110a565b80156107195780601f106106ee57610100808354040283529160200191610719565b820191906000526020600020905b8154815290600101906020018083116106fc57829003601f168201915b5050505050945083805480602002602001604051908101604052809291908181526020016000905b828210156107ed5783829060005260206000200180546107609061110a565b80601f016020809104026020016040519081016040528092919081815260200182805461078c9061110a565b80156107d95780601f106107ae576101008083540402835291602001916107d9565b820191906000526020600020905b8154815290600101906020018083116107bc57829003601f168201915b505050505081526020019060010190610741565b5050505093508280548060200260200160405190810160405280929190818152602001828054801561083e57602002820191906000526020600020905b81548152602001906001019080831161082a575b50505050509250955095509550955095505091939590929450565b8280548282559060005260206000209081019282156108a1579160200282015b828111156108a057825182908161089091906113ee565b5091602001919060010190610879565b5b5090506108ae91906108ff565b5090565b8280548282559060005260206000209081019282156108ee579160200282015b828111156108ed5782518255916020019190600101906108d2565b5b5090506108fb9190610923565b5090565b5b8082111561091f57600081816109169190610940565b50600101610900565b5090565b5b8082111561093c576000816000905550600101610924565b5090565b50805461094c9061110a565b6000825580601f1061095e575061097d565b601f01602090049060005260206000209081019061097c9190610923565b5b50565b6000604051905090565b600080fd5b600080fd5b6000819050919050565b6109a781610994565b81146109b257600080fd5b50565b6000813590506109c48161099e565b92915050565b6000602082840312156109e0576109df61098a565b5b60006109ee848285016109b5565b91505092915050565b600081519050919050565b600082825260208201905092915050565b60005b83811015610a31578082015181840152602081019050610a16565b60008484015250505050565b6000601f19601f8301169050919050565b6000610a59826109f7565b610a638185610a02565b9350610a73818560208601610a13565b610a7c81610a3d565b840191505092915050565b60008115159050919050565b610a9c81610a87565b82525050565b610aab81610994565b82525050565b60006060820190508181036000830152610acb8186610a4e565b9050610ada6020830185610a93565b610ae76040830184610aa2565b949350505050565b600080fd5b600080fd5b7f4e487b7100000000000000000000000000000000000000000000000000000000600052604160045260246000fd5b610b3182610a3d565b810181811067ffffffffffffffff82111715610b5057610b4f610af9565b5b80604052505050565b6000610b63610980565b9050610b6f8282610b28565b919050565b600067ffffffffffffffff821115610b8f57610b8e610af9565b5b610b9882610a3d565b9050602081019050919050565b82818337600083830152505050565b6000610bc7610bc284610b74565b610b59565b905082815260208101848484011115610be357610be2610af4565b5b610bee848285610ba5565b509392505050565b600082601f830112610c0b57610c0a610aef565b5b8135610c1b848260208601610bb4565b91505092915050565b600067ffffffffffffffff821115610c3f57610c3e610af9565b5b602082029050602081019050919050565b600080fd5b6000610c68610c6384610c24565b610b59565b90508083825260208201905060208402830185811115610c8b57610c8a610c50565b5b835b81811015610cd257803567ffffffffffffffff811115610cb057610caf610aef565b5b808601610cbd8982610bf6565b85526020850194505050602081019050610c8d565b5050509392505050565b600082601f830112610cf157610cf0610aef565b5b8135610d01848260208601610c55565b91505092915050565b600080600060608486031215610d2357610d2261098a565b5b600084013567ffffffffffffffff811115610d4157610d4061098f565b5b610d4d86828701610bf6565b935050602084013567ffffffffffffffff811115610d6e57610d6d61098f565b5b610d7a86828701610cdc565b9250506040610d8b868287016109b5565b9150509250925092565b600073ffffffffffffffffffffffffffffffffffffffff82169050919050565b6000610dc082610d95565b9050919050565b610dd081610db5565b8114610ddb57600080fd5b50565b600081359050610ded81610dc7565b92915050565b60008060408385031215610e0a57610e0961098a565b5b6000610e18858286016109b5565b9250506020610e2985828601610dde565b9150509250929050565b6000602082019050610e486000830184610a93565b92915050565b60008060408385031215610e6557610e6461098a565b5b6000610e73858286016109b5565b9250506020610e84858286016109b5565b9150509250929050565b6000602082019050610ea36000830184610aa2565b92915050565b600081519050919050565b600082825260208201905092915050565b6000819050602082019050919050565b600082825260208201905092915050565b6000610ef1826109f7565b610efb8185610ed5565b9350610f0b818560208601610a13565b610f1481610a3d565b840191505092915050565b6000610f2b8383610ee6565b905092915050565b6000602082019050919050565b6000610f4b82610ea9565b610f558185610eb4565b935083602082028501610f6785610ec5565b8060005b85811015610fa35784840389528151610f848582610f1f565b9450610f8f83610f33565b925060208a01995050600181019050610f6b565b50829750879550505050505092915050565b600081519050919050565b600082825260208201905092915050565b6000819050602082019050919050565b610fea81610994565b82525050565b6000610ffc8383610fe1565b60208301905092915050565b6000602082019050919050565b600061102082610fb5565b61102a8185610fc0565b935061103583610fd1565b8060005b8381101561106657815161104d8882610ff0565b975061105883611008565b925050600181019050611039565b5085935050505092915050565b600060a082019050818103600083015261108d8188610a4e565b905081810360208301526110a18187610f40565b905081810360408301526110b58186611015565b90506110c46060830185610a93565b6110d16080830184610aa2565b9695505050505050565b7f4e487b7100000000000000000000000000000000000000000000000000000000600052602260045260246000fd5b6000600282049050600182168061112257607f821691505b602082108103611135576111346110db565b5b50919050565b7f4e487b7100000000000000000000000000000000000000000000000000000000600052603260045260246000fd5b7f566f74696e67207374696c6c2061637469766500000000000000000000000000600082015250565b60006111a0601383610a02565b91506111ab8261116a565b602082019050919050565b600060208201905081810360008301526111cf81611193565b9050919050565b7f4174206c656173742032206f7074696f6e732072657175697265640000000000600082015250565b600061120c601b83610a02565b9150611217826111d6565b602082019050919050565b6000602082019050818103600083015261123b816111ff565b9050919050565b60008190508160005260206000209050919050565b60006020601f8301049050919050565b600082821b905092915050565b6000600883026112a47fffffffffffffffffffffffffffffffffffffffffffffffffffffffffffffffff82611267565b6112ae8683611267565b95508019841693508086168417925050509392505050565b6000819050919050565b60006112eb6112e66112e184610994565b6112c6565b610994565b9050919050565b6000819050919050565b611305836112d0565b611319611311826112f2565b848454611274565b825550505050565b600090565b61132e611321565b6113398184846112fc565b505050565b5b8181101561135d57611352600082611326565b60018101905061133f565b5050565b601f8211156113a25761137381611242565b61137c84611257565b8101602085101561138b578190505b61139f61139785611257565b83018261133e565b50505b505050565b600082821c905092915050565b60006113c5600019846008026113a7565b1980831691505092915050565b60006113de83836113b4565b9150826002028217905092915050565b6113f7826109f7565b67ffffffffffffffff8111156114105761140f610af9565b5b61141a825461110a565b611425828285611361565b600060209050601f8311600181146114585760008415611446578287015190505b61145085826113d2565b8655506114b8565b601f19841661146686611242565b60005b8281101561148e57848901518255600182019150602085019450602081019050611469565b868310156114ab57848901516114a7601f8916826113b4565b8355505b6001600288020188555050505b505050505050565b7f4e487b7100000000000000000000000000000000000000000000000000000000600052601160045260246000fd5b60006114fa82610994565b915061150583610994565b925082820190508082111561151d5761151c6114c0565b5b92915050565b7f416c726561647920766f74656400000000000000000000000000000000000000600082015250565b6000611559600d83610a02565b915061156482611523565b602082019050919050565b600060208201905081810360008301526115888161154c565b9050919050565b7f496e76616c6964206f7074696f6e000000000000000000000000000000000000600082015250565b60006115c5600e83610a02565b91506115d08261158f565b602082019050919050565b600060208201905081810360008301526115f4816115b8565b9050919050565b7f566f74696e6720656e6465640000000000000000000000000000000000000000600082015250565b6000611631600c83610a02565b915061163c826115fb565b602082019050919050565b6000602082019050818103600083015261166081611624565b905091905056fea2646970667358221220eff9c15870072c512307e906ebfbbf8fea8fc3ff0e817b0d2d99ee9b9764b99d64736f6c63430008130033",
  "linkReferences": {},
  "deployedLinkReferences": {}
}